{
  "contractName": "AutToken",
  "abi": [
    {
      "inputs": [],
      "stateMutability": "nonpayable",
      "type": "constructor"
    },
    {
      "anonymous": false,
      "inputs": [
        {
          "indexed": true,
          "internalType": "address",
          "name": "owner",
          "type": "address"
        },
        {
          "indexed": true,
          "internalType": "address",
          "name": "approved",
          "type": "address"
        },
        {
          "indexed": true,
          "internalType": "uint256",
          "name": "tokenId",
          "type": "uint256"
        }
      ],
      "name": "Approval",
      "type": "event"
    },
    {
      "anonymous": false,
      "inputs": [
        {
          "indexed": true,
          "internalType": "address",
          "name": "owner",
          "type": "address"
        },
        {
          "indexed": true,
          "internalType": "address",
          "name": "operator",
          "type": "address"
        },
        {
          "indexed": false,
          "internalType": "bool",
          "name": "approved",
          "type": "bool"
        }
      ],
      "name": "ApprovalForAll",
      "type": "event"
    },
    {
      "anonymous": false,
      "inputs": [
        {
          "indexed": true,
          "internalType": "address",
          "name": "from",
          "type": "address"
        },
        {
          "indexed": true,
          "internalType": "address",
          "name": "to",
          "type": "address"
        },
        {
          "indexed": true,
          "internalType": "uint256",
          "name": "tokenId",
          "type": "uint256"
        }
      ],
      "name": "Transfer",
      "type": "event"
    },
    {
      "inputs": [
        {
          "internalType": "address",
          "name": "to",
          "type": "address"
        },
        {
          "internalType": "uint256",
          "name": "tokenId",
          "type": "uint256"
        }
      ],
      "name": "approve",
      "outputs": [],
      "stateMutability": "nonpayable",
      "type": "function"
    },
    {
      "inputs": [
        {
          "internalType": "address",
          "name": "owner",
          "type": "address"
        }
      ],
      "name": "balanceOf",
      "outputs": [
        {
          "internalType": "uint256",
          "name": "",
          "type": "uint256"
        }
      ],
      "stateMutability": "view",
      "type": "function",
      "constant": true
    },
    {
      "inputs": [
        {
          "internalType": "uint256",
          "name": "tokenId",
          "type": "uint256"
        }
      ],
      "name": "getApproved",
      "outputs": [
        {
          "internalType": "address",
          "name": "",
          "type": "address"
        }
      ],
      "stateMutability": "view",
      "type": "function",
      "constant": true
    },
    {
      "inputs": [
        {
          "internalType": "address",
          "name": "owner",
          "type": "address"
        },
        {
          "internalType": "address",
          "name": "operator",
          "type": "address"
        }
      ],
      "name": "isApprovedForAll",
      "outputs": [
        {
          "internalType": "bool",
          "name": "",
          "type": "bool"
        }
      ],
      "stateMutability": "view",
      "type": "function",
      "constant": true
    },
    {
      "inputs": [],
      "name": "minter",
      "outputs": [
        {
          "internalType": "address",
          "name": "",
          "type": "address"
        }
      ],
      "stateMutability": "view",
      "type": "function",
      "constant": true
    },
    {
      "inputs": [],
      "name": "name",
      "outputs": [
        {
          "internalType": "string",
          "name": "",
          "type": "string"
        }
      ],
      "stateMutability": "view",
      "type": "function",
      "constant": true
    },
    {
      "inputs": [
        {
          "internalType": "uint256",
          "name": "tokenId",
          "type": "uint256"
        }
      ],
      "name": "ownerOf",
      "outputs": [
        {
          "internalType": "address",
          "name": "",
          "type": "address"
        }
      ],
      "stateMutability": "view",
      "type": "function",
      "constant": true
    },
    {
      "inputs": [
        {
          "internalType": "address",
          "name": "from",
          "type": "address"
        },
        {
          "internalType": "address",
          "name": "to",
          "type": "address"
        },
        {
          "internalType": "uint256",
          "name": "tokenId",
          "type": "uint256"
        }
      ],
      "name": "safeTransferFrom",
      "outputs": [],
      "stateMutability": "nonpayable",
      "type": "function"
    },
    {
      "inputs": [
        {
          "internalType": "address",
          "name": "from",
          "type": "address"
        },
        {
          "internalType": "address",
          "name": "to",
          "type": "address"
        },
        {
          "internalType": "uint256",
          "name": "tokenId",
          "type": "uint256"
        },
        {
          "internalType": "bytes",
          "name": "_data",
          "type": "bytes"
        }
      ],
      "name": "safeTransferFrom",
      "outputs": [],
      "stateMutability": "nonpayable",
      "type": "function"
    },
    {
      "inputs": [
        {
          "internalType": "address",
          "name": "operator",
          "type": "address"
        },
        {
          "internalType": "bool",
          "name": "approved",
          "type": "bool"
        }
      ],
      "name": "setApprovalForAll",
      "outputs": [],
      "stateMutability": "nonpayable",
      "type": "function"
    },
    {
      "inputs": [
        {
          "internalType": "bytes4",
          "name": "interfaceId",
          "type": "bytes4"
        }
      ],
      "name": "supportsInterface",
      "outputs": [
        {
          "internalType": "bool",
          "name": "",
          "type": "bool"
        }
      ],
      "stateMutability": "view",
      "type": "function",
      "constant": true
    },
    {
      "inputs": [],
      "name": "symbol",
      "outputs": [
        {
          "internalType": "string",
          "name": "",
          "type": "string"
        }
      ],
      "stateMutability": "view",
      "type": "function",
      "constant": true
    },
    {
      "inputs": [
        {
          "internalType": "uint256",
          "name": "tokenId",
          "type": "uint256"
        }
      ],
      "name": "tokenURI",
      "outputs": [
        {
          "internalType": "string",
          "name": "",
          "type": "string"
        }
      ],
      "stateMutability": "view",
      "type": "function",
      "constant": true
    },
    {
      "inputs": [
        {
          "internalType": "address",
          "name": "from",
          "type": "address"
        },
        {
          "internalType": "address",
          "name": "to",
          "type": "address"
        },
        {
          "internalType": "uint256",
          "name": "tokenId",
          "type": "uint256"
        }
      ],
      "name": "transferFrom",
      "outputs": [],
      "stateMutability": "nonpayable",
      "type": "function"
    },
    {
      "inputs": [
        {
          "internalType": "address",
          "name": "tokenOwner",
          "type": "address"
        },
        {
          "internalType": "string",
          "name": "tokenURI",
          "type": "string"
        }
      ],
      "name": "authenticateDocument",
      "outputs": [
        {
          "internalType": "uint256",
          "name": "",
          "type": "uint256"
        }
      ],
      "stateMutability": "nonpayable",
      "type": "function"
    }
  ],
  "bytecode": "0x60806040523480156200001157600080fd5b506040518060400160405280600881526020017f417574546f6b656e0000000000000000000000000000000000000000000000008152506040518060400160405280600481526020017f4155545400000000000000000000000000000000000000000000000000000000815250816000908051906020019062000096929190620000f9565b508060019080519060200190620000af929190620000f9565b50505033600860006101000a81548173ffffffffffffffffffffffffffffffffffffffff021916908373ffffffffffffffffffffffffffffffffffffffff1602179055506200020e565b8280546200010790620001d8565b90600052602060002090601f0160209004810192826200012b576000855562000177565b82601f106200014657805160ff191683800117855562000177565b8280016001018555821562000177579182015b828111156200017657825182559160200191906001019062000159565b5b5090506200018691906200018a565b5090565b5b80821115620001a55760008160009055506001016200018b565b5090565b7f4e487b7100000000000000000000000000000000000000000000000000000000600052602260045260246000fd5b60006002820490506001821680620001f157607f821691505b60208210811415620002085762000207620001a9565b5b50919050565b612c20806200021e6000396000f3fe608060405234801561001057600080fd5b50600436106100f55760003560e01c8063499d41d911610097578063a22cb46511610066578063a22cb46514610298578063b88d4fde146102b4578063c87b56dd146102d0578063e985e9c514610300576100f5565b8063499d41d9146101ea5780636352211e1461021a57806370a082311461024a57806395d89b411461027a576100f5565b8063081812fc116100d3578063081812fc14610166578063095ea7b31461019657806323b872dd146101b257806342842e0e146101ce576100f5565b806301ffc9a7146100fa57806306fdde031461012a5780630754617214610148575b600080fd5b610114600480360381019061010f9190611982565b610330565b60405161012191906119ca565b60405180910390f35b610132610412565b60405161013f9190611a7e565b60405180910390f35b6101506104a4565b60405161015d9190611ae1565b60405180910390f35b610180600480360381019061017b9190611b32565b6104ca565b60405161018d9190611ae1565b60405180910390f35b6101b060048036038101906101ab9190611b8b565b61054f565b005b6101cc60048036038101906101c79190611bcb565b610667565b005b6101e860048036038101906101e39190611bcb565b6106c7565b005b61020460048036038101906101ff9190611d53565b6106e7565b6040516102119190611dbe565b60405180910390f35b610234600480360381019061022f9190611b32565b61071f565b6040516102419190611ae1565b60405180910390f35b610264600480360381019061025f9190611dd9565b6107d1565b6040516102719190611dbe565b60405180910390f35b610282610889565b60405161028f9190611a7e565b60405180910390f35b6102b260048036038101906102ad9190611e32565b61091b565b005b6102ce60048036038101906102c99190611f13565b610931565b005b6102ea60048036038101906102e59190611b32565b610993565b6040516102f79190611a7e565b60405180910390f35b61031a60048036038101906103159190611f96565b610ae5565b60405161032791906119ca565b60405180910390f35b60007f80ac58cd000000000000000000000000000000000000000000000000000000007bffffffffffffffffffffffffffffffffffffffffffffffffffffffff1916827bffffffffffffffffffffffffffffffffffffffffffffffffffffffff191614806103fb57507f5b5e139f000000000000000000000000000000000000000000000000000000007bffffffffffffffffffffffffffffffffffffffffffffffffffffffff1916827bffffffffffffffffffffffffffffffffffffffffffffffffffffffff1916145b8061040b575061040a82610b79565b5b9050919050565b60606000805461042190612005565b80601f016020809104026020016040519081016040528092919081815260200182805461044d90612005565b801561049a5780601f1061046f5761010080835404028352916020019161049a565b820191906000526020600020905b81548152906001019060200180831161047d57829003601f168201915b5050505050905090565b600860009054906101000a900473ffffffffffffffffffffffffffffffffffffffff1681565b60006104d582610be3565b610514576040517f08c379a000000000000000000000000000000000000000000000000000000000815260040161050b906120a9565b60405180910390fd5b6004600083815260200190815260200160002060009054906101000a900473ffffffffffffffffffffffffffffffffffffffff169050919050565b600061055a8261071f565b90508073ffffffffffffffffffffffffffffffffffffffff168373ffffffffffffffffffffffffffffffffffffffff1614156105cb576040517f08c379a00000000000000000000000000000000000000000000000000000000081526004016105c29061213b565b60405180910390fd5b8073ffffffffffffffffffffffffffffffffffffffff166105ea610c4f565b73ffffffffffffffffffffffffffffffffffffffff161480610619575061061881610613610c4f565b610ae5565b5b610658576040517f08c379a000000000000000000000000000000000000000000000000000000000815260040161064f906121cd565b60405180910390fd5b6106628383610c57565b505050565b610678610672610c4f565b82610d10565b6106b7576040517f08c379a00000000000000000000000000000000000000000000000000000000081526004016106ae9061225f565b60405180910390fd5b6106c2838383610dee565b505050565b6106e283838360405180602001604052806000815250610931565b505050565b60006106f36007611055565b60006106ff600761106b565b905061070b8482611079565b6107158184611253565b8091505092915050565b6000806002600084815260200190815260200160002060009054906101000a900473ffffffffffffffffffffffffffffffffffffffff169050600073ffffffffffffffffffffffffffffffffffffffff168173ffffffffffffffffffffffffffffffffffffffff1614156107c8576040517f08c379a00000000000000000000000000000000000000000000000000000000081526004016107bf906122f1565b60405180910390fd5b80915050919050565b60008073ffffffffffffffffffffffffffffffffffffffff168273ffffffffffffffffffffffffffffffffffffffff161415610842576040517f08c379a000000000000000000000000000000000000000000000000000000000815260040161083990612383565b60405180910390fd5b600360008373ffffffffffffffffffffffffffffffffffffffff1673ffffffffffffffffffffffffffffffffffffffff168152602001908152602001600020549050919050565b60606001805461089890612005565b80601f01602080910402602001604051908101604052809291908181526020018280546108c490612005565b80156109115780601f106108e657610100808354040283529160200191610911565b820191906000526020600020905b8154815290600101906020018083116108f457829003601f168201915b5050505050905090565b61092d610926610c4f565b83836112c7565b5050565b61094261093c610c4f565b83610d10565b610981576040517f08c379a00000000000000000000000000000000000000000000000000000000081526004016109789061225f565b60405180910390fd5b61098d84848484611434565b50505050565b606061099e82610be3565b6109dd576040517f08c379a00000000000000000000000000000000000000000000000000000000081526004016109d490612415565b60405180910390fd5b60006006600084815260200190815260200160002080546109fd90612005565b80601f0160208091040260200160405190810160405280929190818152602001828054610a2990612005565b8015610a765780601f10610a4b57610100808354040283529160200191610a76565b820191906000526020600020905b815481529060010190602001808311610a5957829003601f168201915b505050505090506000610a87611490565b9050600081511415610a9d578192505050610ae0565b600082511115610ad2578082604051602001610aba929190612471565b60405160208183030381529060405292505050610ae0565b610adb846114a7565b925050505b919050565b6000600560008473ffffffffffffffffffffffffffffffffffffffff1673ffffffffffffffffffffffffffffffffffffffff16815260200190815260200160002060008373ffffffffffffffffffffffffffffffffffffffff1673ffffffffffffffffffffffffffffffffffffffff16815260200190815260200160002060009054906101000a900460ff16905092915050565b60007f01ffc9a7000000000000000000000000000000000000000000000000000000007bffffffffffffffffffffffffffffffffffffffffffffffffffffffff1916827bffffffffffffffffffffffffffffffffffffffffffffffffffffffff1916149050919050565b60008073ffffffffffffffffffffffffffffffffffffffff166002600084815260200190815260200160002060009054906101000a900473ffffffffffffffffffffffffffffffffffffffff1673ffffffffffffffffffffffffffffffffffffffff1614159050919050565b600033905090565b816004600083815260200190815260200160002060006101000a81548173ffffffffffffffffffffffffffffffffffffffff021916908373ffffffffffffffffffffffffffffffffffffffff160217905550808273ffffffffffffffffffffffffffffffffffffffff16610cca8361071f565b73ffffffffffffffffffffffffffffffffffffffff167f8c5be1e5ebec7d5bd14f71427d1e84f3dd0314c0f7b2291e5b200ac8c7c3b92560405160405180910390a45050565b6000610d1b82610be3565b610d5a576040517f08c379a0000000000000000000000000000000000000000000000000000000008152600401610d5190612507565b60405180910390fd5b6000610d658361071f565b90508073ffffffffffffffffffffffffffffffffffffffff168473ffffffffffffffffffffffffffffffffffffffff161480610dd457508373ffffffffffffffffffffffffffffffffffffffff16610dbc846104ca565b73ffffffffffffffffffffffffffffffffffffffff16145b80610de55750610de48185610ae5565b5b91505092915050565b8273ffffffffffffffffffffffffffffffffffffffff16610e0e8261071f565b73ffffffffffffffffffffffffffffffffffffffff1614610e64576040517f08c379a0000000000000000000000000000000000000000000000000000000008152600401610e5b90612599565b60405180910390fd5b600073ffffffffffffffffffffffffffffffffffffffff168273ffffffffffffffffffffffffffffffffffffffff161415610ed4576040517f08c379a0000000000000000000000000000000000000000000000000000000008152600401610ecb9061262b565b60405180910390fd5b610edf83838361154e565b610eea600082610c57565b6001600360008573ffffffffffffffffffffffffffffffffffffffff1673ffffffffffffffffffffffffffffffffffffffff1681526020019081526020016000206000828254610f3a919061267a565b925050819055506001600360008473ffffffffffffffffffffffffffffffffffffffff1673ffffffffffffffffffffffffffffffffffffffff1681526020019081526020016000206000828254610f9191906126ae565b92505081905550816002600083815260200190815260200160002060006101000a81548173ffffffffffffffffffffffffffffffffffffffff021916908373ffffffffffffffffffffffffffffffffffffffff160217905550808273ffffffffffffffffffffffffffffffffffffffff168473ffffffffffffffffffffffffffffffffffffffff167fddf252ad1be2c89b69c2b068fc378daa952ba7f163c4a11628f55a4df523b3ef60405160405180910390a4611050838383611553565b505050565b6001816000016000828254019250508190555050565b600081600001549050919050565b600073ffffffffffffffffffffffffffffffffffffffff168273ffffffffffffffffffffffffffffffffffffffff1614156110e9576040517f08c379a00000000000000000000000000000000000000000000000000000000081526004016110e090612750565b60405180910390fd5b6110f281610be3565b15611132576040517f08c379a0000000000000000000000000000000000000000000000000000000008152600401611129906127bc565b60405180910390fd5b61113e6000838361154e565b6001600360008473ffffffffffffffffffffffffffffffffffffffff1673ffffffffffffffffffffffffffffffffffffffff168152602001908152602001600020600082825461118e91906126ae565b92505081905550816002600083815260200190815260200160002060006101000a81548173ffffffffffffffffffffffffffffffffffffffff021916908373ffffffffffffffffffffffffffffffffffffffff160217905550808273ffffffffffffffffffffffffffffffffffffffff16600073ffffffffffffffffffffffffffffffffffffffff167fddf252ad1be2c89b69c2b068fc378daa952ba7f163c4a11628f55a4df523b3ef60405160405180910390a461124f60008383611553565b5050565b61125c82610be3565b61129b576040517f08c379a00000000000000000000000000000000000000000000000000000000081526004016112929061284e565b60405180910390fd5b806006600084815260200190815260200160002090805190602001906112c2929190611873565b505050565b8173ffffffffffffffffffffffffffffffffffffffff168373ffffffffffffffffffffffffffffffffffffffff161415611336576040517f08c379a000000000000000000000000000000000000000000000000000000000815260040161132d906128ba565b60405180910390fd5b80600560008573ffffffffffffffffffffffffffffffffffffffff1673ffffffffffffffffffffffffffffffffffffffff16815260200190815260200160002060008473ffffffffffffffffffffffffffffffffffffffff1673ffffffffffffffffffffffffffffffffffffffff16815260200190815260200160002060006101000a81548160ff0219169083151502179055508173ffffffffffffffffffffffffffffffffffffffff168373ffffffffffffffffffffffffffffffffffffffff167f17307eab39ab6107e8899845ad3d59bd9653f200f220920489ca2b5937696c318360405161142791906119ca565b60405180910390a3505050565b61143f848484610dee565b61144b84848484611558565b61148a576040517f08c379a00000000000000000000000000000000000000000000000000000000081526004016114819061294c565b60405180910390fd5b50505050565b606060405180602001604052806000815250905090565b60606114b282610be3565b6114f1576040517f08c379a00000000000000000000000000000000000000000000000000000000081526004016114e8906129de565b60405180910390fd5b60006114fb611490565b9050600081511161151b5760405180602001604052806000815250611546565b80611525846116ef565b604051602001611536929190612471565b6040516020818303038152906040525b915050919050565b505050565b505050565b60006115798473ffffffffffffffffffffffffffffffffffffffff16611850565b156116e2578373ffffffffffffffffffffffffffffffffffffffff1663150b7a026115a2610c4f565b8786866040518563ffffffff1660e01b81526004016115c49493929190612a53565b602060405180830381600087803b1580156115de57600080fd5b505af192505050801561160f57506040513d601f19601f8201168201806040525081019061160c9190612ab4565b60015b611692573d806000811461163f576040519150601f19603f3d011682016040523d82523d6000602084013e611644565b606091505b5060008151141561168a576040517f08c379a00000000000000000000000000000000000000000000000000000000081526004016116819061294c565b60405180910390fd5b805181602001fd5b63150b7a0260e01b7bffffffffffffffffffffffffffffffffffffffffffffffffffffffff1916817bffffffffffffffffffffffffffffffffffffffffffffffffffffffff1916149150506116e7565b600190505b949350505050565b60606000821415611737576040518060400160405280600181526020017f3000000000000000000000000000000000000000000000000000000000000000815250905061184b565b600082905060005b6000821461176957808061175290612ae1565b915050600a826117629190612b59565b915061173f565b60008167ffffffffffffffff81111561178557611784611c28565b5b6040519080825280601f01601f1916602001820160405280156117b75781602001600182028036833780820191505090505b5090505b60008514611844576001826117d0919061267a565b9150600a856117df9190612b8a565b60306117eb91906126ae565b60f81b81838151811061180157611800612bbb565b5b60200101907effffffffffffffffffffffffffffffffffffffffffffffffffffffffffffff1916908160001a905350600a8561183d9190612b59565b94506117bb565b8093505050505b919050565b6000808273ffffffffffffffffffffffffffffffffffffffff163b119050919050565b82805461187f90612005565b90600052602060002090601f0160209004810192826118a157600085556118e8565b82601f106118ba57805160ff19168380011785556118e8565b828001600101855582156118e8579182015b828111156118e75782518255916020019190600101906118cc565b5b5090506118f591906118f9565b5090565b5b808211156119125760008160009055506001016118fa565b5090565b6000604051905090565b600080fd5b600080fd5b60007fffffffff0000000000000000000000000000000000000000000000000000000082169050919050565b61195f8161192a565b811461196a57600080fd5b50565b60008135905061197c81611956565b92915050565b60006020828403121561199857611997611920565b5b60006119a68482850161196d565b91505092915050565b60008115159050919050565b6119c4816119af565b82525050565b60006020820190506119df60008301846119bb565b92915050565b600081519050919050565b600082825260208201905092915050565b60005b83811015611a1f578082015181840152602081019050611a04565b83811115611a2e576000848401525b50505050565b6000601f19601f8301169050919050565b6000611a50826119e5565b611a5a81856119f0565b9350611a6a818560208601611a01565b611a7381611a34565b840191505092915050565b60006020820190508181036000830152611a988184611a45565b905092915050565b600073ffffffffffffffffffffffffffffffffffffffff82169050919050565b6000611acb82611aa0565b9050919050565b611adb81611ac0565b82525050565b6000602082019050611af66000830184611ad2565b92915050565b6000819050919050565b611b0f81611afc565b8114611b1a57600080fd5b50565b600081359050611b2c81611b06565b92915050565b600060208284031215611b4857611b47611920565b5b6000611b5684828501611b1d565b91505092915050565b611b6881611ac0565b8114611b7357600080fd5b50565b600081359050611b8581611b5f565b92915050565b60008060408385031215611ba257611ba1611920565b5b6000611bb085828601611b76565b9250506020611bc185828601611b1d565b9150509250929050565b600080600060608486031215611be457611be3611920565b5b6000611bf286828701611b76565b9350506020611c0386828701611b76565b9250506040611c1486828701611b1d565b9150509250925092565b600080fd5b600080fd5b7f4e487b7100000000000000000000000000000000000000000000000000000000600052604160045260246000fd5b611c6082611a34565b810181811067ffffffffffffffff82111715611c7f57611c7e611c28565b5b80604052505050565b6000611c92611916565b9050611c9e8282611c57565b919050565b600067ffffffffffffffff821115611cbe57611cbd611c28565b5b611cc782611a34565b9050602081019050919050565b82818337600083830152505050565b6000611cf6611cf184611ca3565b611c88565b905082815260208101848484011115611d1257611d11611c23565b5b611d1d848285611cd4565b509392505050565b600082601f830112611d3a57611d39611c1e565b5b8135611d4a848260208601611ce3565b91505092915050565b60008060408385031215611d6a57611d69611920565b5b6000611d7885828601611b76565b925050602083013567ffffffffffffffff811115611d9957611d98611925565b5b611da585828601611d25565b9150509250929050565b611db881611afc565b82525050565b6000602082019050611dd36000830184611daf565b92915050565b600060208284031215611def57611dee611920565b5b6000611dfd84828501611b76565b91505092915050565b611e0f816119af565b8114611e1a57600080fd5b50565b600081359050611e2c81611e06565b92915050565b60008060408385031215611e4957611e48611920565b5b6000611e5785828601611b76565b9250506020611e6885828601611e1d565b9150509250929050565b600067ffffffffffffffff821115611e8d57611e8c611c28565b5b611e9682611a34565b9050602081019050919050565b6000611eb6611eb184611e72565b611c88565b905082815260208101848484011115611ed257611ed1611c23565b5b611edd848285611cd4565b509392505050565b600082601f830112611efa57611ef9611c1e565b5b8135611f0a848260208601611ea3565b91505092915050565b60008060008060808587031215611f2d57611f2c611920565b5b6000611f3b87828801611b76565b9450506020611f4c87828801611b76565b9350506040611f5d87828801611b1d565b925050606085013567ffffffffffffffff811115611f7e57611f7d611925565b5b611f8a87828801611ee5565b91505092959194509250565b60008060408385031215611fad57611fac611920565b5b6000611fbb85828601611b76565b9250506020611fcc85828601611b76565b9150509250929050565b7f4e487b7100000000000000000000000000000000000000000000000000000000600052602260045260246000fd5b6000600282049050600182168061201d57607f821691505b6020821081141561203157612030611fd6565b5b50919050565b7f4552433732313a20617070726f76656420717565727920666f72206e6f6e657860008201527f697374656e7420746f6b656e0000000000000000000000000000000000000000602082015250565b6000612093602c836119f0565b915061209e82612037565b604082019050919050565b600060208201905081810360008301526120c281612086565b9050919050565b7f4552433732313a20617070726f76616c20746f2063757272656e74206f776e6560008201527f7200000000000000000000000000000000000000000000000000000000000000602082015250565b60006121256021836119f0565b9150612130826120c9565b604082019050919050565b6000602082019050818103600083015261215481612118565b9050919050565b7f4552433732313a20617070726f76652063616c6c6572206973206e6f74206f7760008201527f6e6572206e6f7220617070726f76656420666f7220616c6c0000000000000000602082015250565b60006121b76038836119f0565b91506121c28261215b565b604082019050919050565b600060208201905081810360008301526121e6816121aa565b9050919050565b7f4552433732313a207472616e736665722063616c6c6572206973206e6f74206f60008201527f776e6572206e6f7220617070726f766564000000000000000000000000000000602082015250565b60006122496031836119f0565b9150612254826121ed565b604082019050919050565b600060208201905081810360008301526122788161223c565b9050919050565b7f4552433732313a206f776e657220717565727920666f72206e6f6e657869737460008201527f656e7420746f6b656e0000000000000000000000000000000000000000000000602082015250565b60006122db6029836119f0565b91506122e68261227f565b604082019050919050565b6000602082019050818103600083015261230a816122ce565b9050919050565b7f4552433732313a2062616c616e636520717565727920666f7220746865207a6560008201527f726f206164647265737300000000000000000000000000000000000000000000602082015250565b600061236d602a836119f0565b915061237882612311565b604082019050919050565b6000602082019050818103600083015261239c81612360565b9050919050565b7f45524337323155524953746f726167653a2055524920717565727920666f722060008201527f6e6f6e6578697374656e7420746f6b656e000000000000000000000000000000602082015250565b60006123ff6031836119f0565b915061240a826123a3565b604082019050919050565b6000602082019050818103600083015261242e816123f2565b9050919050565b600081905092915050565b600061244b826119e5565b6124558185612435565b9350612465818560208601611a01565b80840191505092915050565b600061247d8285612440565b91506124898284612440565b91508190509392505050565b7f4552433732313a206f70657261746f7220717565727920666f72206e6f6e657860008201527f697374656e7420746f6b656e0000000000000000000000000000000000000000602082015250565b60006124f1602c836119f0565b91506124fc82612495565b604082019050919050565b60006020820190508181036000830152612520816124e4565b9050919050565b7f4552433732313a207472616e736665722066726f6d20696e636f72726563742060008201527f6f776e6572000000000000000000000000000000000000000000000000000000602082015250565b60006125836025836119f0565b915061258e82612527565b604082019050919050565b600060208201905081810360008301526125b281612576565b9050919050565b7f4552433732313a207472616e7366657220746f20746865207a65726f2061646460008201527f7265737300000000000000000000000000000000000000000000000000000000602082015250565b60006126156024836119f0565b9150612620826125b9565b604082019050919050565b6000602082019050818103600083015261264481612608565b9050919050565b7f4e487b7100000000000000000000000000000000000000000000000000000000600052601160045260246000fd5b600061268582611afc565b915061269083611afc565b9250828210156126a3576126a261264b565b5b828203905092915050565b60006126b982611afc565b91506126c483611afc565b9250827fffffffffffffffffffffffffffffffffffffffffffffffffffffffffffffffff038211156126f9576126f861264b565b5b828201905092915050565b7f4552433732313a206d696e7420746f20746865207a65726f2061646472657373600082015250565b600061273a6020836119f0565b915061274582612704565b602082019050919050565b600060208201905081810360008301526127698161272d565b9050919050565b7f4552433732313a20746f6b656e20616c7265616479206d696e74656400000000600082015250565b60006127a6601c836119f0565b91506127b182612770565b602082019050919050565b600060208201905081810360008301526127d581612799565b9050919050565b7f45524337323155524953746f726167653a2055524920736574206f66206e6f6e60008201527f6578697374656e7420746f6b656e000000000000000000000000000000000000602082015250565b6000612838602e836119f0565b9150612843826127dc565b604082019050919050565b600060208201905081810360008301526128678161282b565b9050919050565b7f4552433732313a20617070726f766520746f2063616c6c657200000000000000600082015250565b60006128a46019836119f0565b91506128af8261286e565b602082019050919050565b600060208201905081810360008301526128d381612897565b9050919050565b7f4552433732313a207472616e7366657220746f206e6f6e20455243373231526560008201527f63656976657220696d706c656d656e7465720000000000000000000000000000602082015250565b60006129366032836119f0565b9150612941826128da565b604082019050919050565b6000602082019050818103600083015261296581612929565b9050919050565b7f4552433732314d657461646174613a2055524920717565727920666f72206e6f60008201527f6e6578697374656e7420746f6b656e0000000000000000000000000000000000602082015250565b60006129c8602f836119f0565b91506129d38261296c565b604082019050919050565b600060208201905081810360008301526129f7816129bb565b9050919050565b600081519050919050565b600082825260208201905092915050565b6000612a25826129fe565b612a2f8185612a09565b9350612a3f818560208601611a01565b612a4881611a34565b840191505092915050565b6000608082019050612a686000830187611ad2565b612a756020830186611ad2565b612a826040830185611daf565b8181036060830152612a948184612a1a565b905095945050505050565b600081519050612aae81611956565b92915050565b600060208284031215612aca57612ac9611920565b5b6000612ad884828501612a9f565b91505092915050565b6000612aec82611afc565b91507fffffffffffffffffffffffffffffffffffffffffffffffffffffffffffffffff821415612b1f57612b1e61264b565b5b600182019050919050565b7f4e487b7100000000000000000000000000000000000000000000000000000000600052601260045260246000fd5b6000612b6482611afc565b9150612b6f83611afc565b925082612b7f57612b7e612b2a565b5b828204905092915050565b6000612b9582611afc565b9150612ba083611afc565b925082612bb057612baf612b2a565b5b828206905092915050565b7f4e487b7100000000000000000000000000000000000000000000000000000000600052603260045260246000fdfea2646970667358221220a564df57d8739fdb24a274a5225c0b82f116d66c111fc2afee7df9497a26032b64736f6c63430008090033",
  "immutableReferences": {},
  "source": "pragma solidity >= 0.7.0 < 0.9.0;\r\nimport \"@openzeppelin/contracts/token/ERC721/extensions/ERC721URIStorage.sol\";\r\nimport \"@openzeppelin/contracts/utils/Counters.sol\";\r\n\r\ncontract AutToken is ERC721URIStorage{\r\n    using Counters for Counters.Counter;\r\n    Counters.Counter private _tokenIds;\r\n    address public  minter;\r\n    constructor() ERC721(\"AutToken\", \"AUTT\") public {\r\n        minter = msg.sender;\r\n    }\r\n\r\n    \r\n\r\n    function authenticateDocument(address tokenOwner, string memory tokenURI) public returns (uint256) {\r\n        _tokenIds.increment();\r\n        uint256 newItemId = _tokenIds.current();\r\n        _mint(tokenOwner, newItemId);\r\n        _setTokenURI(newItemId,tokenURI);\r\n        return newItemId;\r\n    }\r\n    \r\n}",
  "sourcePath": "C:\\Users\\leova\\source\\repos\\AutorHash\\blockchain\\contracts\\AutToken.sol",
  "compiler": {
    "name": "solc",
    "version": "0.8.9+commit.e5eed63a.Emscripten.clang"
  },
  "schemaVersion": "3.4.3",
  "updatedAt": "2022-02-15T21:39:40.919Z",
  "networkType": "ethereum",
  "devdoc": {
    "kind": "dev",
    "methods": {
      "approve(address,uint256)": {
        "details": "See {IERC721-approve}."
      },
      "balanceOf(address)": {
        "details": "See {IERC721-balanceOf}."
      },
      "getApproved(uint256)": {
        "details": "See {IERC721-getApproved}."
      },
      "isApprovedForAll(address,address)": {
        "details": "See {IERC721-isApprovedForAll}."
      },
      "name()": {
        "details": "See {IERC721Metadata-name}."
      },
      "ownerOf(uint256)": {
        "details": "See {IERC721-ownerOf}."
      },
      "safeTransferFrom(address,address,uint256)": {
        "details": "See {IERC721-safeTransferFrom}."
      },
      "safeTransferFrom(address,address,uint256,bytes)": {
        "details": "See {IERC721-safeTransferFrom}."
      },
      "setApprovalForAll(address,bool)": {
        "details": "See {IERC721-setApprovalForAll}."
      },
      "supportsInterface(bytes4)": {
        "details": "See {IERC165-supportsInterface}."
      },
      "symbol()": {
        "details": "See {IERC721Metadata-symbol}."
      },
      "tokenURI(uint256)": {
        "details": "See {IERC721Metadata-tokenURI}."
      },
      "transferFrom(address,address,uint256)": {
        "details": "See {IERC721-transferFrom}."
      }
    },
    "version": 1
  },
  "userdoc": {
    "kind": "user",
    "methods": {},
    "version": 1
  }
}