{
  "contractName": "Store",
  "abi": [
    {
      "inputs": [],
      "stateMutability": "nonpayable",
      "type": "constructor"
    },
    {
      "anonymous": false,
      "inputs": [
        {
          "indexed": true,
          "internalType": "address",
          "name": "sender",
          "type": "address"
        },
        {
          "indexed": false,
          "internalType": "uint256",
          "name": "amount",
          "type": "uint256"
        }
      ],
      "name": "Bought",
      "type": "event"
    },
    {
      "anonymous": false,
      "inputs": [
        {
          "indexed": true,
          "internalType": "address",
          "name": "sender",
          "type": "address"
        },
        {
          "indexed": false,
          "internalType": "uint256",
          "name": "amount",
          "type": "uint256"
        }
      ],
      "name": "Sold",
      "type": "event"
    },
    {
      "inputs": [],
      "name": "minter",
      "outputs": [
        {
          "internalType": "address",
          "name": "",
          "type": "address"
        }
      ],
      "stateMutability": "view",
      "type": "function",
      "constant": true
    },
    {
      "inputs": [],
      "name": "token",
      "outputs": [
        {
          "internalType": "contract Apsota",
          "name": "",
          "type": "address"
        }
      ],
      "stateMutability": "view",
      "type": "function",
      "constant": true
    },
    {
      "inputs": [],
      "name": "buy",
      "outputs": [],
      "stateMutability": "payable",
      "type": "function",
      "payable": true
    },
    {
      "inputs": [
        {
          "internalType": "uint256",
          "name": "amount",
          "type": "uint256"
        }
      ],
      "name": "sell",
      "outputs": [],
      "stateMutability": "nonpayable",
      "type": "function"
    }
  ],
  "bytecode": "0x608060405234801561001057600080fd5b5060405161001d906100bf565b604051809103906000f080158015610039573d6000803e3d6000fd5b50600160006101000a81548173ffffffffffffffffffffffffffffffffffffffff021916908373ffffffffffffffffffffffffffffffffffffffff160217905550336000806101000a81548173ffffffffffffffffffffffffffffffffffffffff021916908373ffffffffffffffffffffffffffffffffffffffff1602179055506100cc565b6111b380610b6583390190565b610a8a806100db6000396000f3fe60806040526004361061003f5760003560e01c80630754617214610044578063a6f2ae3a1461006f578063e4849b3214610079578063fc0c546a146100a2575b600080fd5b34801561005057600080fd5b506100596100cd565b6040516100669190610616565b60405180910390f35b6100776100f1565b005b34801561008557600080fd5b506100a0600480360381019061009b919061066c565b61032d565b005b3480156100ae57600080fd5b506100b76105af565b6040516100c491906106f8565b60405180910390f35b60008054906101000a900473ffffffffffffffffffffffffffffffffffffffff1681565b60003490506000600160009054906101000a900473ffffffffffffffffffffffffffffffffffffffff1673ffffffffffffffffffffffffffffffffffffffff166370a08231306040518263ffffffff1660e01b81526004016101539190610616565b60206040518083038186803b15801561016b57600080fd5b505afa15801561017f573d6000803e3d6000fd5b505050506040513d601f19601f820116820180604052508101906101a39190610728565b9050600082116101e8576040517f08c379a00000000000000000000000000000000000000000000000000000000081526004016101df906107b2565b60405180910390fd5b8082111561022b576040517f08c379a00000000000000000000000000000000000000000000000000000000081526004016102229061081e565b60405180910390fd5b600160009054906101000a900473ffffffffffffffffffffffffffffffffffffffff1673ffffffffffffffffffffffffffffffffffffffff1663a9059cbb33846040518363ffffffff1660e01b815260040161028892919061084d565b602060405180830381600087803b1580156102a257600080fd5b505af11580156102b6573d6000803e3d6000fd5b505050506040513d601f19601f820116820180604052508101906102da91906108ae565b503373ffffffffffffffffffffffffffffffffffffffff167fc55650ccda1011e1cdc769b1fbf546ebb8c97800b6072b49e06cd560305b1d678360405161032191906108db565b60405180910390a25050565b60008111610370576040517f08c379a000000000000000000000000000000000000000000000000000000000815260040161036790610968565b60405180910390fd5b6000600160009054906101000a900473ffffffffffffffffffffffffffffffffffffffff1673ffffffffffffffffffffffffffffffffffffffff1663dd62ed3e33306040518363ffffffff1660e01b81526004016103cf929190610988565b60206040518083038186803b1580156103e757600080fd5b505afa1580156103fb573d6000803e3d6000fd5b505050506040513d601f19601f8201168201806040525081019061041f9190610728565b905081811015610464576040517f08c379a000000000000000000000000000000000000000000000000000000000815260040161045b906109fd565b60405180910390fd5b600160009054906101000a900473ffffffffffffffffffffffffffffffffffffffff1673ffffffffffffffffffffffffffffffffffffffff166323b872dd3330856040518463ffffffff1660e01b81526004016104c393929190610a1d565b602060405180830381600087803b1580156104dd57600080fd5b505af11580156104f1573d6000803e3d6000fd5b505050506040513d601f19601f8201168201806040525081019061051591906108ae565b503373ffffffffffffffffffffffffffffffffffffffff166108fc839081150290604051600060405180830381858888f1935050505015801561055c573d6000803e3d6000fd5b503373ffffffffffffffffffffffffffffffffffffffff167fae92ab4b6f8f401ead768d3273e6bb937a13e39827d19c6376e8fd4512a05d9a836040516105a391906108db565b60405180910390a25050565b600160009054906101000a900473ffffffffffffffffffffffffffffffffffffffff1681565b600073ffffffffffffffffffffffffffffffffffffffff82169050919050565b6000610600826105d5565b9050919050565b610610816105f5565b82525050565b600060208201905061062b6000830184610607565b92915050565b600080fd5b6000819050919050565b61064981610636565b811461065457600080fd5b50565b60008135905061066681610640565b92915050565b60006020828403121561068257610681610631565b5b600061069084828501610657565b91505092915050565b6000819050919050565b60006106be6106b96106b4846105d5565b610699565b6105d5565b9050919050565b60006106d0826106a3565b9050919050565b60006106e2826106c5565b9050919050565b6106f2816106d7565b82525050565b600060208201905061070d60008301846106e9565b92915050565b60008151905061072281610640565b92915050565b60006020828403121561073e5761073d610631565b5b600061074c84828501610713565b91505092915050565b600082825260208201905092915050565b7f566f6365207072656369736120656e7669617220616c67756d20626e62000000600082015250565b600061079c601d83610755565b91506107a782610766565b602082019050919050565b600060208201905081810360008301526107cb8161078f565b9050919050565b7f42616c616e636f206e616f2066756e63696f6e61000000000000000000000000600082015250565b6000610808601483610755565b9150610813826107d2565b602082019050919050565b60006020820190508181036000830152610837816107fb565b9050919050565b61084781610636565b82525050565b60006040820190506108626000830185610607565b61086f602083018461083e565b9392505050565b60008115159050919050565b61088b81610876565b811461089657600080fd5b50565b6000815190506108a881610882565b92915050565b6000602082840312156108c4576108c3610631565b5b60006108d284828501610899565b91505092915050565b60006020820190506108f0600083018461083e565b92915050565b7f566f636520707265636973612076656e6465722070656c6f206d656e6f73206160008201527f6c67756e7320746f6b656e730000000000000000000000000000000000000000602082015250565b6000610952602c83610755565b915061095d826108f6565b604082019050919050565b6000602082019050818103600083015261098181610945565b9050919050565b600060408201905061099d6000830185610607565b6109aa6020830184610607565b9392505050565b7f436865636b2074686520746f6b656e20616c6c6f77616e636500000000000000600082015250565b60006109e7601983610755565b91506109f2826109b1565b602082019050919050565b60006020820190508181036000830152610a16816109da565b9050919050565b6000606082019050610a326000830186610607565b610a3f6020830185610607565b610a4c604083018461083e565b94935050505056fea264697066735822122013ba41107320619b0b061dc0a039aab0b759c4d635571a5761b40f43f33ca57b64736f6c634300080900336080604052670de0b6b3a76400006004553480156200001d57600080fd5b506040518060400160405280600381526020017f4154430000000000000000000000000000000000000000000000000000000000815250600390805190602001906200006b929190620000b8565b50600454600160003373ffffffffffffffffffffffffffffffffffffffff1673ffffffffffffffffffffffffffffffffffffffff16815260200190815260200160002081905550620001cd565b828054620000c69062000197565b90600052602060002090601f016020900481019282620000ea576000855562000136565b82601f106200010557805160ff191683800117855562000136565b8280016001018555821562000136579182015b828111156200013557825182559160200191906001019062000118565b5b50905062000145919062000149565b5090565b5b80821115620001645760008160009055506001016200014a565b5090565b7f4e487b7100000000000000000000000000000000000000000000000000000000600052602260045260246000fd5b60006002820490506001821680620001b057607f821691505b60208210811415620001c757620001c662000168565b5b50919050565b610fd680620001dd6000396000f3fe608060405234801561001057600080fd5b50600436106100b45760003560e01c8063313ce56711610071578063313ce567146101a35780635c658165146101c157806370a08231146101f157806395d89b4114610221578063a9059cbb1461023f578063dd62ed3e1461026f576100b4565b806307546172146100b9578063095ea7b3146100d75780631249c58b1461010757806318160ddd1461012557806323b872dd1461014357806327e235e314610173575b600080fd5b6100c161029f565b6040516100ce9190610af8565b60405180910390f35b6100f160048036038101906100ec9190610b7a565b6102c3565b6040516100fe9190610bd5565b60405180910390f35b61010f6103b5565b60405161011c9190610bd5565b60405180910390f35b61012d61046b565b60405161013a9190610bff565b60405180910390f35b61015d60048036038101906101589190610c1a565b610471565b60405161016a9190610bd5565b60405180910390f35b61018d60048036038101906101889190610c6d565b610769565b60405161019a9190610bff565b60405180910390f35b6101ab610781565b6040516101b89190610cb6565b60405180910390f35b6101db60048036038101906101d69190610cd1565b610786565b6040516101e89190610bff565b60405180910390f35b61020b60048036038101906102069190610c6d565b6107ab565b6040516102189190610bff565b60405180910390f35b6102296107f4565b6040516102369190610daa565b60405180910390f35b61025960048036038101906102549190610b7a565b610882565b6040516102669190610bd5565b60405180910390f35b61028960048036038101906102849190610cd1565b610a30565b6040516102969190610bff565b60405180910390f35b60008054906101000a900473ffffffffffffffffffffffffffffffffffffffff1681565b600081600260003373ffffffffffffffffffffffffffffffffffffffff1673ffffffffffffffffffffffffffffffffffffffff16815260200190815260200160002060008573ffffffffffffffffffffffffffffffffffffffff1673ffffffffffffffffffffffffffffffffffffffff168152602001908152602001600020819055508273ffffffffffffffffffffffffffffffffffffffff163373ffffffffffffffffffffffffffffffffffffffff167f8c5be1e5ebec7d5bd14f71427d1e84f3dd0314c0f7b2291e5b200ac8c7c3b925846040516103a39190610bff565b60405180910390a36001905092915050565b60008060009054906101000a900473ffffffffffffffffffffffffffffffffffffffff1673ffffffffffffffffffffffffffffffffffffffff163373ffffffffffffffffffffffffffffffffffffffff161461041057600080fd5b6000606460146004546104239190610dfb565b61042d9190610e84565b905060045481111561043e57600080fd5b60088161044b9190610dfb565b6004600082825461045c9190610eb5565b92505081905550600191505090565b60045481565b600080600260008673ffffffffffffffffffffffffffffffffffffffff1673ffffffffffffffffffffffffffffffffffffffff16815260200190815260200160002060003373ffffffffffffffffffffffffffffffffffffffff1673ffffffffffffffffffffffffffffffffffffffff16815260200190815260200160002054905082600160008773ffffffffffffffffffffffffffffffffffffffff1673ffffffffffffffffffffffffffffffffffffffff16815260200190815260200160002054101580156105425750828110155b61054b57600080fd5b6000606460038561055c9190610dfb565b6105669190610e84565b9050806004600082825461057a9190610f0b565b92505081905550808461058d9190610f0b565b935083600160008773ffffffffffffffffffffffffffffffffffffffff1673ffffffffffffffffffffffffffffffffffffffff16815260200190815260200160002060008282546105de9190610eb5565b9250508190555083600160008873ffffffffffffffffffffffffffffffffffffffff1673ffffffffffffffffffffffffffffffffffffffff16815260200190815260200160002060008282546106349190610f0b565b925050819055507fffffffffffffffffffffffffffffffffffffffffffffffffffffffffffffffff8210156106f75783600260008873ffffffffffffffffffffffffffffffffffffffff1673ffffffffffffffffffffffffffffffffffffffff16815260200190815260200160002060003373ffffffffffffffffffffffffffffffffffffffff1673ffffffffffffffffffffffffffffffffffffffff16815260200190815260200160002060008282546106ef9190610f0b565b925050819055505b8473ffffffffffffffffffffffffffffffffffffffff168673ffffffffffffffffffffffffffffffffffffffff167fddf252ad1be2c89b69c2b068fc378daa952ba7f163c4a11628f55a4df523b3ef866040516107549190610bff565b60405180910390a36001925050509392505050565b60016020528060005260406000206000915090505481565b600a81565b6002602052816000526040600020602052806000526040600020600091509150505481565b6000600160008373ffffffffffffffffffffffffffffffffffffffff1673ffffffffffffffffffffffffffffffffffffffff168152602001908152602001600020549050919050565b6003805461080190610f6e565b80601f016020809104026020016040519081016040528092919081815260200182805461082d90610f6e565b801561087a5780601f1061084f5761010080835404028352916020019161087a565b820191906000526020600020905b81548152906001019060200180831161085d57829003601f168201915b505050505081565b600081600160003373ffffffffffffffffffffffffffffffffffffffff1673ffffffffffffffffffffffffffffffffffffffff1681526020019081526020016000205410156108d057600080fd5b81600160003373ffffffffffffffffffffffffffffffffffffffff1673ffffffffffffffffffffffffffffffffffffffff168152602001908152602001600020600082825461091f9190610f0b565b92505081905550600060646003846109379190610dfb565b6109419190610e84565b905080600460008282546109559190610f0b565b9250508190555080836109689190610f0b565b925082600160008673ffffffffffffffffffffffffffffffffffffffff1673ffffffffffffffffffffffffffffffffffffffff16815260200190815260200160002060008282546109b99190610eb5565b925050819055508373ffffffffffffffffffffffffffffffffffffffff163373ffffffffffffffffffffffffffffffffffffffff167fddf252ad1be2c89b69c2b068fc378daa952ba7f163c4a11628f55a4df523b3ef85604051610a1d9190610bff565b60405180910390a3600191505092915050565b6000600260008473ffffffffffffffffffffffffffffffffffffffff1673ffffffffffffffffffffffffffffffffffffffff16815260200190815260200160002060008373ffffffffffffffffffffffffffffffffffffffff1673ffffffffffffffffffffffffffffffffffffffff16815260200190815260200160002054905092915050565b600073ffffffffffffffffffffffffffffffffffffffff82169050919050565b6000610ae282610ab7565b9050919050565b610af281610ad7565b82525050565b6000602082019050610b0d6000830184610ae9565b92915050565b600080fd5b610b2181610ad7565b8114610b2c57600080fd5b50565b600081359050610b3e81610b18565b92915050565b6000819050919050565b610b5781610b44565b8114610b6257600080fd5b50565b600081359050610b7481610b4e565b92915050565b60008060408385031215610b9157610b90610b13565b5b6000610b9f85828601610b2f565b9250506020610bb085828601610b65565b9150509250929050565b60008115159050919050565b610bcf81610bba565b82525050565b6000602082019050610bea6000830184610bc6565b92915050565b610bf981610b44565b82525050565b6000602082019050610c146000830184610bf0565b92915050565b600080600060608486031215610c3357610c32610b13565b5b6000610c4186828701610b2f565b9350506020610c5286828701610b2f565b9250506040610c6386828701610b65565b9150509250925092565b600060208284031215610c8357610c82610b13565b5b6000610c9184828501610b2f565b91505092915050565b60008160000b9050919050565b610cb081610c9a565b82525050565b6000602082019050610ccb6000830184610ca7565b92915050565b60008060408385031215610ce857610ce7610b13565b5b6000610cf685828601610b2f565b9250506020610d0785828601610b2f565b9150509250929050565b600081519050919050565b600082825260208201905092915050565b60005b83811015610d4b578082015181840152602081019050610d30565b83811115610d5a576000848401525b50505050565b6000601f19601f8301169050919050565b6000610d7c82610d11565b610d868185610d1c565b9350610d96818560208601610d2d565b610d9f81610d60565b840191505092915050565b60006020820190508181036000830152610dc48184610d71565b905092915050565b7f4e487b7100000000000000000000000000000000000000000000000000000000600052601160045260246000fd5b6000610e0682610b44565b9150610e1183610b44565b9250817fffffffffffffffffffffffffffffffffffffffffffffffffffffffffffffffff0483118215151615610e4a57610e49610dcc565b5b828202905092915050565b7f4e487b7100000000000000000000000000000000000000000000000000000000600052601260045260246000fd5b6000610e8f82610b44565b9150610e9a83610b44565b925082610eaa57610ea9610e55565b5b828204905092915050565b6000610ec082610b44565b9150610ecb83610b44565b9250827fffffffffffffffffffffffffffffffffffffffffffffffffffffffffffffffff03821115610f0057610eff610dcc565b5b828201905092915050565b6000610f1682610b44565b9150610f2183610b44565b925082821015610f3457610f33610dcc565b5b828203905092915050565b7f4e487b7100000000000000000000000000000000000000000000000000000000600052602260045260246000fd5b60006002820490506001821680610f8657607f821691505b60208210811415610f9a57610f99610f3f565b5b5091905056fea2646970667358221220ac65b6da2c63677b5d8e14dbe7ece37b12a17d505a411c3bf7a6df8cd6452c9664736f6c63430008090033",
  "immutableReferences": {},
  "source": "pragma solidity >= 0.7.0 < 0.9.0;\r\nimport './Apsota.sol';\r\ncontract Store{\r\n    address public minter;\r\n    Apsota public token;\r\n    event Bought( address indexed sender ,uint256 amount);\r\n    event Sold( address indexed sender,uint256 amount);\r\n    constructor() public{\r\n        token = new Apsota();\r\n        minter = msg.sender;\r\n    }\r\n\r\n    function buy() payable public{\r\n        uint256 amountToBuy = msg.value;\r\n        uint256 balance = token.balanceOf(address(this));\r\n        require(amountToBuy > 0, \"Voce precisa enviar algum bnb\");\r\n        require(amountToBuy <= balance, 'Balanco nao funciona');\r\n        token.transfer(msg.sender,amountToBuy);\r\n        emit Bought(msg.sender,amountToBuy);\r\n    }\r\n\r\n    function sell(uint256 amount) public{\r\n        require(amount > 0, \"Voce precisa vender pelo menos alguns tokens\");\r\n        uint256 allowance = token.allowance(msg.sender, address(this));\r\n        require(allowance >= amount, \"Check the token allowance\");\r\n        token.transferFrom(msg.sender, address(this), amount);\r\n        payable(msg.sender).transfer(amount);\r\n        emit Sold(msg.sender,amount);\r\n    }\r\n\r\n}",
  "sourcePath": "C:\\Users\\natha\\Documents\\meusProjetos\\AutorHash\\blockchain\\contracts\\Store.sol",
  "compiler": {
    "name": "solc",
    "version": "0.8.9+commit.e5eed63a.Emscripten.clang"
  },
  "schemaVersion": "3.4.3",
  "updatedAt": "2021-11-17T22:55:54.891Z",
  "networkType": "ethereum",
  "devdoc": {
    "kind": "dev",
    "methods": {},
    "version": 1
  },
  "userdoc": {
    "kind": "user",
    "methods": {},
    "version": 1
  }
}