{
  "contractName": "Token",
  "abi": [
    {
      "inputs": [],
      "stateMutability": "nonpayable",
      "type": "constructor"
    },
    {
      "anonymous": false,
      "inputs": [
        {
          "indexed": true,
          "internalType": "address",
          "name": "_owner",
          "type": "address"
        },
        {
          "indexed": true,
          "internalType": "address",
          "name": "_spender",
          "type": "address"
        },
        {
          "indexed": false,
          "internalType": "uint256",
          "name": "_value",
          "type": "uint256"
        }
      ],
      "name": "Approval",
      "type": "event"
    },
    {
      "anonymous": false,
      "inputs": [
        {
          "indexed": true,
          "internalType": "address",
          "name": "_from",
          "type": "address"
        },
        {
          "indexed": true,
          "internalType": "address",
          "name": "_to",
          "type": "address"
        },
        {
          "indexed": false,
          "internalType": "uint256",
          "name": "_value",
          "type": "uint256"
        }
      ],
      "name": "Transfer",
      "type": "event"
    },
    {
      "inputs": [
        {
          "internalType": "address",
          "name": "",
          "type": "address"
        },
        {
          "internalType": "address",
          "name": "",
          "type": "address"
        }
      ],
      "name": "allowed",
      "outputs": [
        {
          "internalType": "uint256",
          "name": "",
          "type": "uint256"
        }
      ],
      "stateMutability": "view",
      "type": "function",
      "constant": true
    },
    {
      "inputs": [
        {
          "internalType": "address",
          "name": "",
          "type": "address"
        }
      ],
      "name": "balances",
      "outputs": [
        {
          "internalType": "uint256",
          "name": "",
          "type": "uint256"
        }
      ],
      "stateMutability": "view",
      "type": "function",
      "constant": true
    },
    {
      "inputs": [],
      "name": "decimals",
      "outputs": [
        {
          "internalType": "int8",
          "name": "",
          "type": "int8"
        }
      ],
      "stateMutability": "view",
      "type": "function",
      "constant": true
    },
    {
      "inputs": [],
      "name": "minter",
      "outputs": [
        {
          "internalType": "address",
          "name": "",
          "type": "address"
        }
      ],
      "stateMutability": "view",
      "type": "function",
      "constant": true
    },
    {
      "inputs": [],
      "name": "symbol",
      "outputs": [
        {
          "internalType": "string",
          "name": "",
          "type": "string"
        }
      ],
      "stateMutability": "view",
      "type": "function",
      "constant": true
    },
    {
      "inputs": [],
      "name": "totalSupply",
      "outputs": [
        {
          "internalType": "uint256",
          "name": "",
          "type": "uint256"
        }
      ],
      "stateMutability": "view",
      "type": "function",
      "constant": true
    },
    {
      "inputs": [],
      "name": "mint",
      "outputs": [
        {
          "internalType": "bool",
          "name": "success",
          "type": "bool"
        }
      ],
      "stateMutability": "nonpayable",
      "type": "function"
    },
    {
      "inputs": [
        {
          "internalType": "address",
          "name": "_to",
          "type": "address"
        },
        {
          "internalType": "uint256",
          "name": "_value",
          "type": "uint256"
        }
      ],
      "name": "transfer",
      "outputs": [
        {
          "internalType": "bool",
          "name": "success",
          "type": "bool"
        }
      ],
      "stateMutability": "nonpayable",
      "type": "function"
    },
    {
      "inputs": [
        {
          "internalType": "address",
          "name": "_from",
          "type": "address"
        },
        {
          "internalType": "address",
          "name": "_to",
          "type": "address"
        },
        {
          "internalType": "uint256",
          "name": "_value",
          "type": "uint256"
        }
      ],
      "name": "transferFrom",
      "outputs": [
        {
          "internalType": "bool",
          "name": "success",
          "type": "bool"
        }
      ],
      "stateMutability": "nonpayable",
      "type": "function"
    },
    {
      "inputs": [
        {
          "internalType": "address",
          "name": "_owner",
          "type": "address"
        }
      ],
      "name": "balanceOf",
      "outputs": [
        {
          "internalType": "uint256",
          "name": "balance",
          "type": "uint256"
        }
      ],
      "stateMutability": "view",
      "type": "function",
      "constant": true
    },
    {
      "inputs": [
        {
          "internalType": "address",
          "name": "_spender",
          "type": "address"
        },
        {
          "internalType": "uint256",
          "name": "_value",
          "type": "uint256"
        }
      ],
      "name": "approve",
      "outputs": [
        {
          "internalType": "bool",
          "name": "success",
          "type": "bool"
        }
      ],
      "stateMutability": "nonpayable",
      "type": "function"
    },
    {
      "inputs": [
        {
          "internalType": "address",
          "name": "_owner",
          "type": "address"
        },
        {
          "internalType": "address",
          "name": "_spender",
          "type": "address"
        }
      ],
      "name": "allowance",
      "outputs": [
        {
          "internalType": "uint256",
          "name": "remaining",
          "type": "uint256"
        }
      ],
      "stateMutability": "view",
      "type": "function",
      "constant": true
    }
  ],
  "bytecode": "0x6080604052670de0b6b3a76400006004553480156200001d57600080fd5b50336000806101000a81548173ffffffffffffffffffffffffffffffffffffffff021916908373ffffffffffffffffffffffffffffffffffffffff1602179055506040518060400160405280600381526020017f417574000000000000000000000000000000000000000000000000000000000081525060039080519060200190620000ab92919062000107565b506103e8600454620000be9190620001f0565b600160003373ffffffffffffffffffffffffffffffffffffffff1673ffffffffffffffffffffffffffffffffffffffff168152602001908152602001600020819055506200028d565b828054620001159062000257565b90600052602060002090601f01602090048101928262000139576000855562000185565b82601f106200015457805160ff191683800117855562000185565b8280016001018555821562000185579182015b828111156200018457825182559160200191906001019062000167565b5b50905062000194919062000198565b5090565b5b80821115620001b357600081600090555060010162000199565b5090565b6000819050919050565b7f4e487b7100000000000000000000000000000000000000000000000000000000600052601260045260246000fd5b6000620001fd82620001b7565b91506200020a83620001b7565b9250826200021d576200021c620001c1565b5b828204905092915050565b7f4e487b7100000000000000000000000000000000000000000000000000000000600052602260045260246000fd5b600060028204905060018216806200027057607f821691505b6020821081141562000287576200028662000228565b5b50919050565b610fd6806200029d6000396000f3fe608060405234801561001057600080fd5b50600436106100b45760003560e01c8063313ce56711610071578063313ce567146101a35780635c658165146101c157806370a08231146101f157806395d89b4114610221578063a9059cbb1461023f578063dd62ed3e1461026f576100b4565b806307546172146100b9578063095ea7b3146100d75780631249c58b1461010757806318160ddd1461012557806323b872dd1461014357806327e235e314610173575b600080fd5b6100c161029f565b6040516100ce9190610af8565b60405180910390f35b6100f160048036038101906100ec9190610b7a565b6102c3565b6040516100fe9190610bd5565b60405180910390f35b61010f6103b5565b60405161011c9190610bd5565b60405180910390f35b61012d61046b565b60405161013a9190610bff565b60405180910390f35b61015d60048036038101906101589190610c1a565b610471565b60405161016a9190610bd5565b60405180910390f35b61018d60048036038101906101889190610c6d565b610769565b60405161019a9190610bff565b60405180910390f35b6101ab610781565b6040516101b89190610cb6565b60405180910390f35b6101db60048036038101906101d69190610cd1565b610786565b6040516101e89190610bff565b60405180910390f35b61020b60048036038101906102069190610c6d565b6107ab565b6040516102189190610bff565b60405180910390f35b6102296107f4565b6040516102369190610daa565b60405180910390f35b61025960048036038101906102549190610b7a565b610882565b6040516102669190610bd5565b60405180910390f35b61028960048036038101906102849190610cd1565b610a30565b6040516102969190610bff565b60405180910390f35b60008054906101000a900473ffffffffffffffffffffffffffffffffffffffff1681565b600081600260003373ffffffffffffffffffffffffffffffffffffffff1673ffffffffffffffffffffffffffffffffffffffff16815260200190815260200160002060008573ffffffffffffffffffffffffffffffffffffffff1673ffffffffffffffffffffffffffffffffffffffff168152602001908152602001600020819055508273ffffffffffffffffffffffffffffffffffffffff163373ffffffffffffffffffffffffffffffffffffffff167f8c5be1e5ebec7d5bd14f71427d1e84f3dd0314c0f7b2291e5b200ac8c7c3b925846040516103a39190610bff565b60405180910390a36001905092915050565b60008060009054906101000a900473ffffffffffffffffffffffffffffffffffffffff1673ffffffffffffffffffffffffffffffffffffffff163373ffffffffffffffffffffffffffffffffffffffff161461041057600080fd5b6000606460146004546104239190610dfb565b61042d9190610e84565b905060045481111561043e57600080fd5b60088161044b9190610dfb565b6004600082825461045c9190610eb5565b92505081905550600191505090565b60045481565b600080600260008673ffffffffffffffffffffffffffffffffffffffff1673ffffffffffffffffffffffffffffffffffffffff16815260200190815260200160002060003373ffffffffffffffffffffffffffffffffffffffff1673ffffffffffffffffffffffffffffffffffffffff16815260200190815260200160002054905082600160008773ffffffffffffffffffffffffffffffffffffffff1673ffffffffffffffffffffffffffffffffffffffff16815260200190815260200160002054101580156105425750828110155b61054b57600080fd5b6000606460038561055c9190610dfb565b6105669190610e84565b9050806004600082825461057a9190610f0b565b92505081905550808461058d9190610f0b565b935083600160008773ffffffffffffffffffffffffffffffffffffffff1673ffffffffffffffffffffffffffffffffffffffff16815260200190815260200160002060008282546105de9190610eb5565b9250508190555083600160008873ffffffffffffffffffffffffffffffffffffffff1673ffffffffffffffffffffffffffffffffffffffff16815260200190815260200160002060008282546106349190610f0b565b925050819055507fffffffffffffffffffffffffffffffffffffffffffffffffffffffffffffffff8210156106f75783600260008873ffffffffffffffffffffffffffffffffffffffff1673ffffffffffffffffffffffffffffffffffffffff16815260200190815260200160002060003373ffffffffffffffffffffffffffffffffffffffff1673ffffffffffffffffffffffffffffffffffffffff16815260200190815260200160002060008282546106ef9190610f0b565b925050819055505b8473ffffffffffffffffffffffffffffffffffffffff168673ffffffffffffffffffffffffffffffffffffffff167fddf252ad1be2c89b69c2b068fc378daa952ba7f163c4a11628f55a4df523b3ef866040516107549190610bff565b60405180910390a36001925050509392505050565b60016020528060005260406000206000915090505481565b600a81565b6002602052816000526040600020602052806000526040600020600091509150505481565b6000600160008373ffffffffffffffffffffffffffffffffffffffff1673ffffffffffffffffffffffffffffffffffffffff168152602001908152602001600020549050919050565b6003805461080190610f6e565b80601f016020809104026020016040519081016040528092919081815260200182805461082d90610f6e565b801561087a5780601f1061084f5761010080835404028352916020019161087a565b820191906000526020600020905b81548152906001019060200180831161085d57829003601f168201915b505050505081565b600081600160003373ffffffffffffffffffffffffffffffffffffffff1673ffffffffffffffffffffffffffffffffffffffff1681526020019081526020016000205410156108d057600080fd5b600060646003846108e19190610dfb565b6108eb9190610e84565b905082600160003373ffffffffffffffffffffffffffffffffffffffff1673ffffffffffffffffffffffffffffffffffffffff168152602001908152602001600020600082825461093c9190610f0b565b9250508190555080600460008282546109559190610f0b565b9250508190555080836109689190610f0b565b925082600160008673ffffffffffffffffffffffffffffffffffffffff1673ffffffffffffffffffffffffffffffffffffffff16815260200190815260200160002060008282546109b99190610eb5565b925050819055508373ffffffffffffffffffffffffffffffffffffffff163373ffffffffffffffffffffffffffffffffffffffff167fddf252ad1be2c89b69c2b068fc378daa952ba7f163c4a11628f55a4df523b3ef85604051610a1d9190610bff565b60405180910390a3600191505092915050565b6000600260008473ffffffffffffffffffffffffffffffffffffffff1673ffffffffffffffffffffffffffffffffffffffff16815260200190815260200160002060008373ffffffffffffffffffffffffffffffffffffffff1673ffffffffffffffffffffffffffffffffffffffff16815260200190815260200160002054905092915050565b600073ffffffffffffffffffffffffffffffffffffffff82169050919050565b6000610ae282610ab7565b9050919050565b610af281610ad7565b82525050565b6000602082019050610b0d6000830184610ae9565b92915050565b600080fd5b610b2181610ad7565b8114610b2c57600080fd5b50565b600081359050610b3e81610b18565b92915050565b6000819050919050565b610b5781610b44565b8114610b6257600080fd5b50565b600081359050610b7481610b4e565b92915050565b60008060408385031215610b9157610b90610b13565b5b6000610b9f85828601610b2f565b9250506020610bb085828601610b65565b9150509250929050565b60008115159050919050565b610bcf81610bba565b82525050565b6000602082019050610bea6000830184610bc6565b92915050565b610bf981610b44565b82525050565b6000602082019050610c146000830184610bf0565b92915050565b600080600060608486031215610c3357610c32610b13565b5b6000610c4186828701610b2f565b9350506020610c5286828701610b2f565b9250506040610c6386828701610b65565b9150509250925092565b600060208284031215610c8357610c82610b13565b5b6000610c9184828501610b2f565b91505092915050565b60008160000b9050919050565b610cb081610c9a565b82525050565b6000602082019050610ccb6000830184610ca7565b92915050565b60008060408385031215610ce857610ce7610b13565b5b6000610cf685828601610b2f565b9250506020610d0785828601610b2f565b9150509250929050565b600081519050919050565b600082825260208201905092915050565b60005b83811015610d4b578082015181840152602081019050610d30565b83811115610d5a576000848401525b50505050565b6000601f19601f8301169050919050565b6000610d7c82610d11565b610d868185610d1c565b9350610d96818560208601610d2d565b610d9f81610d60565b840191505092915050565b60006020820190508181036000830152610dc48184610d71565b905092915050565b7f4e487b7100000000000000000000000000000000000000000000000000000000600052601160045260246000fd5b6000610e0682610b44565b9150610e1183610b44565b9250817fffffffffffffffffffffffffffffffffffffffffffffffffffffffffffffffff0483118215151615610e4a57610e49610dcc565b5b828202905092915050565b7f4e487b7100000000000000000000000000000000000000000000000000000000600052601260045260246000fd5b6000610e8f82610b44565b9150610e9a83610b44565b925082610eaa57610ea9610e55565b5b828204905092915050565b6000610ec082610b44565b9150610ecb83610b44565b9250827fffffffffffffffffffffffffffffffffffffffffffffffffffffffffffffffff03821115610f0057610eff610dcc565b5b828201905092915050565b6000610f1682610b44565b9150610f2183610b44565b925082821015610f3457610f33610dcc565b5b828203905092915050565b7f4e487b7100000000000000000000000000000000000000000000000000000000600052602260045260246000fd5b60006002820490506001821680610f8657607f821691505b60208210811415610f9a57610f99610f3f565b5b5091905056fea2646970667358221220987604c74be2fdaf9907ff728b6c5baf183ee14e6e784e616716b35c50a5e00464736f6c63430008090033",
  "immutableReferences": {},
  "source": "pragma solidity >= 0.7.0 < 0.9.0;\r\nimport \"./IERC20.sol\";\r\ncontract Token is IERC20{\r\n    uint256 private constant MAX_UINT256 = 2**256 - 1;\r\n    address public minter;\r\n    mapping(address => uint256) public balances;\r\n    mapping(address => mapping(address => uint256)) public allowed;\r\n    string  constant name  = \"AutorCoin\";\r\n    int8 public constant decimals = 10;\r\n    string public symbol;\r\n    uint256 public totalSupply = 10**18 ;\r\n\r\n    constructor(){\r\n        minter = msg.sender;\r\n        symbol = \"Aut\";\r\n        balances[msg.sender] = totalSupply/1000;\r\n       \r\n    \r\n    }\r\n\r\n\r\n    function mint() public returns(bool success){\r\n        require(msg.sender == minter);\r\n        uint256 percentage = totalSupply*20/100;\r\n        require(percentage <= totalSupply);\r\n        totalSupply+= percentage*8;\r\n        return true;\r\n\r\n    }\r\n    \r\n    function transfer(address _to, uint256 _value)\r\n        public\r\n        override\r\n        returns (bool success)\r\n    {\r\n        require(balances[msg.sender] >= _value);\r\n        uint256 burn_percentage = _value * 3/100;\r\n        balances[msg.sender] -= _value;\r\n        totalSupply -= burn_percentage;\r\n        _value = _value - burn_percentage;\r\n        balances[_to] += _value ;\r\n        emit Transfer(msg.sender, _to, _value); //solhint-disable-line indent, no-unused-vars\r\n        return true;\r\n    }\r\n\r\n    function transferFrom(\r\n        address _from,\r\n        address _to,\r\n        uint256 _value\r\n    ) public override returns (bool success) {\r\n        uint256 allowance_ = allowed[_from][msg.sender];\r\n        require(balances[_from] >= _value && allowance_ >= _value);\r\n        uint256 burn_percentage = _value * 3/100;\r\n        totalSupply -= burn_percentage;\r\n        _value = _value - burn_percentage;\r\n        balances[_to] += _value;\r\n        balances[_from] -= _value;\r\n        if (allowance_ < MAX_UINT256) {\r\n            allowed[_from][msg.sender] -= _value;\r\n        }\r\n        emit Transfer(_from, _to, _value); //solhint-disable-line indent, no-unused-vars\r\n        return true;\r\n    }\r\n\r\n    function balanceOf(address _owner)\r\n        public\r\n        view\r\n        override\r\n        returns (uint256 balance)\r\n    {\r\n        return balances[_owner];\r\n    }\r\n\r\n    function approve(address _spender, uint256 _value)\r\n        public\r\n        override\r\n        returns (bool success)\r\n    {\r\n        allowed[msg.sender][_spender] = _value;\r\n        emit Approval(msg.sender, _spender, _value); //solhint-disable-line indent, no-unused-vars\r\n        return true;\r\n    }\r\n\r\n    function allowance(address _owner, address _spender)\r\n        public\r\n        view\r\n        override\r\n        returns (uint256 remaining)\r\n    {\r\n        return allowed[_owner][_spender];\r\n    }\r\n    \r\n    \r\n    \r\n    \r\n}",
  "sourcePath": "C:\\Users\\natha\\Documents\\meusProjetos\\AutorHash\\blockchain\\contracts\\Token.sol",
  "compiler": {
    "name": "solc",
    "version": "0.8.9+commit.e5eed63a.Emscripten.clang"
  },
  "schemaVersion": "3.4.3",
  "updatedAt": "2021-12-10T16:55:00.733Z",
  "networkType": "ethereum",
  "devdoc": {
    "kind": "dev",
    "methods": {
      "allowance(address,address)": {
        "params": {
          "_owner": "The address of the account owning tokens",
          "_spender": "The address of the account able to transfer the tokens"
        },
        "returns": {
          "remaining": "Amount of remaining tokens allowed to spent"
        }
      },
      "approve(address,uint256)": {
        "params": {
          "_spender": "The address of the account able to transfer the tokens",
          "_value": "The amount of tokens to be approved for transfer"
        },
        "returns": {
          "success": "Whether the approval was successful or not"
        }
      },
      "balanceOf(address)": {
        "params": {
          "_owner": "The address from which the balance will be retrieved"
        },
        "returns": {
          "balance": "The balance"
        }
      },
      "transfer(address,uint256)": {
        "params": {
          "_to": "The address of the recipient",
          "_value": "The amount of token to be transferred"
        },
        "returns": {
          "success": "Whether the transfer was successful or not"
        }
      },
      "transferFrom(address,address,uint256)": {
        "params": {
          "_from": "The address of the sender",
          "_to": "The address of the recipient",
          "_value": "The amount of token to be transferred"
        },
        "returns": {
          "success": "Whether the transfer was successful or not"
        }
      }
    },
    "version": 1
  },
  "userdoc": {
    "kind": "user",
    "methods": {
      "approve(address,uint256)": {
        "notice": "`msg.sender` approves `_spender` to spend `_value` tokens"
      },
      "transfer(address,uint256)": {
        "notice": "send `_value` token to `_to` from `msg.sender`"
      },
      "transferFrom(address,address,uint256)": {
        "notice": "send `_value` token to `_to` from `_from` on the condition it is approved by `_from`"
      }
    },
    "version": 1
  }
}